:020000040800F2
:1000000030040020D90000082F0700089D030008D5
:1000100000000000000000000000000000000000E0
:10002000000000000000000000000000330700088E
:10003000000000000000000031070008A9070008C8
:10004000000000000000000000000000EB000008BD
:10005000EB000008EB000008EB000008EB000008D4
:100060000000000000000000000000000000000090
:10007000EB000008EB000008EB00000800000000A7
:1000800000000000EB00000800000000EB0000088A
:10009000000000000000000000000000EB0000086D
:1000A00000000000EB00000800000000EB0000086A
:1000B0000000000000000000000000000000000040
:1000C0000448854600F05CF800480047D10D000860
:1000D000C046C0463004002004488047044800471A
:1000E000FEE7FEE7FEE7FEE7FEE7FEE7DD070008C6
:1000F000C100000830B50B46014600202022012433
:1001000009E00D46D5409D4205D31D469540491B4B
:100110002546954040191546521E002DF1DC30BD94
:10012000F0B51FB40646002082B005464024019178
:1001300000901BE0019922460F46304600F042F83D
:10014000049A059B801A994110D3104619462246FD
:1001500000F028F8361A8F4101972246012000212D
:10016000009F00F01FF838184D4100902046641E93
:100170000028DFDC019B00982946324607B0F0BD1D
:10018000064C0125064E05E0E36807CC2B430C3CEA
:1001900098471034B442F7D3FFF796FF840F000856
:1001A000A40F000810B5202A04DB0146203A914034
:1001B000002010BD914020239C1A0346E3401943C0
:1001C000904010BD10B5202A04DB0846203AD040EC
:1001D000002110BD0B46D340D0402024A21A9140EC
:1001E0000843194610BD000010B500BF1C48006848
:1001F000FF21013108431A49086000BF00BF00BF5A
:1002000017480068012189020840800A0028F6D0BA
:100210000020134989680F22120291430143104ABA
:10022000916000BF00BF11468968C908C900014339
:10023000916000BF00BF00BF0948806838210840B6
:100240000028F8D100BF06498968072212039143AC
:100250000143034A916000BF024800F0C9F910BD94
:100260000010024000366E0108B5012080033F49AE
:10027000096801433D4A1160114609680140009137
:1002800000BF00BF3A4B00223A4801683A4800F0EC
:10029000B5F900203849C96801221203914301438E
:1002A000354AD16000BF00BF11460969521491431D
:1002B0000143314A116100BF00BF1146C9680322E2
:1002C0005202914301432C4AD16000BF00BF114646
:1002D00049690322120291430143274A516100BF39
:1002E0000C201146C9680C2291430143224AD16077
:1002F00000BF00BF1046C068511408431146C860D3
:1003000000BF00BF4020C043086000BF022000F0D3
:100310004DF9022000F04AF902221021174800F09E
:10032000EFF803221021154800F026F901221021D0
:10033000124800F007F901221021104800F0CCF813
:10034000022220210D4800F0DBF8032220210B4877
:1003500000F012F901222021084800F0F3F80122F0
:100360002021064800F0B8F808BD00004010024007
:1003700040420F00000000200038014000040050FF
:1003800008B505494143009100BF00BF00994A1ECE
:1003900000920029F9D108BDB80B000000BFFEE7AC
:1003A00010B540210520000700F0A8F82021052005
:1003B000000700F0A3F8022000F0EEFB402105202A
:1003C000000700F09BF8022000F0E6FB402105202A
:1003D000000700F07FF8022000F0DEFB202105205E
:1003E000000700F077F810BD10B5202105200007A8
:1003F00000F070F8022000F0CFFB4021052000073C
:1004000000F068F8022000F0C7FB2021052000075B
:1004100000F074F8022000F0BFFB40210520000727
:1004200000F06CF8022000F0B7FB20210520000747
:1004300000F050F840210520000700F04BF810BDF7
:1004400070B5044600251EE020210520000700F0BD
:1004500041F8E007C00F002805D040210520000723
:1004600000F04CF804E040210520000700F032F8CD
:10047000022000F091FB20210520000700F03EF84B
:100480006410681CC5B2082DDEDB202105200007A2
:1004900000F020F8022000F07FFB00BF4021052083
:1004A000000700F00EF80128F8D0022000F074FBDD
:1004B00020210520000700F021F8022000F06CFB4D
:1004C00070BD024610690840884201D10120704782
:1004D0000020FCE78162704730B5046A0B464B434D
:1004E0004B434B43DD00ED1A2346AB430C464C43D4
:1004F0004C434C4354432343036230BD81617047F6
:1005000030B503680C464C4365006419A3430C46A0
:100510004C4354432343036030BD30B503680C465D
:100520004C4365006419A3430C464C435443234396
:10053000036030BD10B543688B430C4654432343DE
:10054000436010BD30B5C3680C464C436500641968
:10055000A3430C464C4354432343C36030BD30B5E2
:10056000C3680C464C4365006419A3430C464C43D6
:1005700054432343C36030BD30B583680C464C43BD
:1005800065006419A3430C464C43544323438360E2
:1005900030BD30B583680C464C4365006419A343F5
:1005A0000C464C4354432343836030BD08B5054992
:1005B000496B0143034A51631146496B0140009165
:1005C00000BF08BD0010024070B504467D25ED0057
:1005D00029462046FFF78EFD401E04494861002051
:1005E00088610520086100BF70BD000000E000E0E8
:1005F000014908607047000000000020FFB583B08B
:100600000C461D460121C9020598884247D1690060
:10061000192262431046FFF76DFD06466421FFF77D
:1006200069FD07016900192262431046FFF762FD68
:1006300006466900192262431046FFF75BFD6421FC
:100640000190FFF757FD64214843301AC000323053
:100650000290FFF74FFDF821084040003F18690065
:10066000192262431046FFF745FD0646690019222C
:1006700062431046FFF73EFD64210190FFF73AFD0B
:1006800064214843301AC00032300290FFF732FD37
:100690004007400F381881B20398816045E0A900F7
:1006A000192262431046FFF725FD06466421FFF735
:1006B00021FD0701A900192262431046FFF71AFD28
:1006C0000646A900192262431046FFF713FD642174
:1006D0000190FFF70FFD64214843301A00013230CA
:1006E0000290FFF707FDF02108403F18A9001922EA
:1006F00062431046FFF7FEFC0646A900192262433A
:100700001046FFF7F7FC64210190FFF7F3FC64212A
:100710004843301A000132300290FFF7EBFC00072B
:10072000000F381881B20398816007B0F0BD7047A0
:1007300070477047002007E000220C214143044B22
:10074000C9188A60411CC8B20328F5D3704700005D
:100750000400002070B500F021F80546002417E0E1
:100760000C2060430C4940188068291A0C20604313
:10077000094A80184068814208D30C206043114622
:10078000401885600C21614350588047601CC4B2FA
:10079000032CE5D370BD0000040000200148006870
:1007A000704700002800002002480068401C0149F2
:1007B000086070472800002010B50648FFF704FFC6
:1007C00000BF05480069022108430349086100BFD2
:1007D00010BD000000366E0100E000E010B50E48CC
:1007E0004068000C00040D49098889B208430A4991
:1007F0004860084640680A490840084940318988ED
:10080000C905C909084304494860C8030549886007
:100810006420FFF7B5FD10BD001002400001FF1F6E
:10082000FFFF00FE00ED00E010B572B600F018FA10
:1008300062B610BD02200521090749694140052221
:100840001207516100BF70470FB410B503A9044BE4
:10085000044A029800F026F810BC08BC04B01847FF
:10086000350C00082C00002030B47446641E257836
:10087000641CAB4204D3635D5B00E31830BC1847D3
:100880001D46F8E702E008C8121F08C1002AFAD185
:1008900070477047002001E001C1121F002AFBD100
:1008A00070470000FFB58FB00F460446002606E0F3
:1008B00025280AD0129A11999047641C761C20783A
:1008C0000028F5D1304613B0F0BD002501219F4A24
:1008D000009500E00543641C23780846203B9840BF
:1008E0001042F7D120782E2815D1042005436078D6
:1008F000641C2A280AD101CF641C00900BE00099E7
:100900000A22514330394018641C00902078014677
:1009100030390929F3D920786C280ED004DC4C2812
:1009200013D06A2812D104E074280ED07A280DD191
:100930000BE001204005054307E00121090562782D
:100940000D43824201D16D18641C641C2078692813
:1009500049D008DC0028B5D058286CD063280FD0C7
:10096000642808D13FE070286AD0732811D0752818
:100970005FD078285FD0129A11999047761CE3E0F7
:100980003878694608720020487202A80190012058
:1009900003E0386801900020C0433F1D69070CD573
:1009A000002500E06D1C00998D420FDA8542F9DBCD
:1009B0000199495D0029F5D108E0002500E06D1C92
:1009C0008542FCDB0199495D0029F8D1761907E0E1
:1009D000019801990078491C0191129A1199904748
:1009E0006D1EF5D2B0E00A20029000216802400F8F
:1009F000039102280CD001CFC117844600290DDADB
:100A000060460A4640420021914184462D2008E07C
:100A1000FF1DFF08FF0003CF8446EFE7280504D53C
:100A20002B206A46107401203DE0E8073BD02020CF
:100A3000F7E70A2000E0102000210391029007E070
:100A4000102002900021042005430820039100900B
:100A50006802400F022811D001CF002184460020F7
:100A60000D90280720D52078864670280CD0029A51
:100A70001020039B42401A430CD015E0FF1DFF08D5
:100A8000FF0003CF8446EAE740206A461074012045
:100A90000D900CE06046084306D030206A46107482
:100AA0007046507402200D902078582804D028A059
:100AB00001900DA80E900DE02AA0F9E76046039B77
:100AC000029AFFF72DFB019B84469B5C0E9A521EF7
:100AD0000E92137060460843F0D10E9805A9081ACB
:100AE00020300190680701D40120009000990198FE
:100AF000814201DD081A00E000200025009006E098
:100B000004A8129A405D119990476D1C761C0D98AF
:100B10008542F5DB04E0129A302011999047761C4B
:100B20000099481E00900029F5DC08E00E980E9907
:100B30000078491C0E91129A11999047761C0199E0
:100B4000481E01900029F1DC641CB8E60928010068
:100B50003031323334353637383961626364656633
:100B600000000000303132333435363738394142F5
:100B7000434445460000000010B5FFF71DFE01206C
:100B8000FFF714FD0220FFF711FDFFF76DFB00F0EA
:100B9000F9F800F095F910BD10B504210B46434358
:100BA0001A4600E000BF1346521E002BFAD110BDBA
:100BB00070B505460C46FFF7F3FB4420FFF740FCF9
:100BC000FFF712FCFFF7ECFB2846FFF739FC07495B
:100BD000085DFFF735FCFFF707FCFFF7E1FB8C2012
:100BE000FFF72EFCFFF700FC70BD00006F0F000840
:100BF00070B50446FFF7D4FB4020FFF721FCFFF758
:100C0000F3FBFFF7CDFBC020FFF71AFC002505E042
:100C10002078FFF715FC641C681CC5B2062DF7DBB5
:100C2000FFF7E2FBFFF7BCFB8C20FFF709FCFFF7A7
:100C3000DBFB70BD0A46C1B2084B596000BF00BF64
:100C400000BF064909684023194089090029F7D0E7
:100C500000BFD943014B196000BF70470038014005
:100C600010B500F0DDF80446FF2C6ED0214642A0FE
:100C7000FFF7EAFD4248FFF7BBFF2046E8380300D4
:100C8000FFF7F2FD10483F36312C27221D6D645AC4
:100C90005118130E09760121C020FFF789FF68E083
:100CA0000221C120FFF784FF63E00321C220FFF788
:100CB0007FFF5EE00421C320FFF77AFF59E00521A2
:100CC000C420FFF775FF54E00621C520FFF770FF31
:100CD0004FE00721C020FFF76BFF4AE00821C12049
:100CE000FFF766FF45E00921C220FFF761FF40E002
:100CF0000121C420FFF75CFF0021C520FFF758FF4A
:100D000037E00121C420FFF753FF0121C520FFF781
:100D10004FFF2EE00121C420FFF74AFF0221C5202A
:100D2000FFF746FF25E00121C420FFF741FF032123
:100D3000C520FFF73DFF1CE00121C420FFF738FF6D
:100D40000421C520FFF734FF13E013E00121C42084
:100D5000FFF72EFF0521C520FFF72AFF09E001213B
:100D6000C420FFF725FF0621C520FFF721FF00E083
:100D700000BF00BF10BD00006B65793D2558000025
:100D8000790F000818B501201049496B01430F4A3B
:100D900051631146496B0140009100BF00BF022022
:100DA0000121052212071268034643435C001B1908
:100DB0009A43034643434B431A4305231B071A60D8
:100DC00000BF00BF1946886200BF18BD0010024076
:100DD00008B50120114909680143104A1160114604
:100DE00009680140009100BF00BF00070B4940396E
:100DF000C96B0143094A403AD1631146C96B0140AE
:100E0000009100BF00BFFFF7EFF9FFF7B5FEFFF756
:100E100091FC01E0FFF79EFCFCE70000401002405F
:100E200070B5FFF7BDFA4220FFF70AFB402105200D
:100E30000007FFF763FB002520E0202105200007C5
:100E4000FFF748FB0220FFF7A7FE64100220FFF720
:100E5000A3FE202105200007FFF750FB40210520BD
:100E60000007FFF72EFB002802D08020044300E09B
:100E700000BF0120FFF790FE681CC5B2082DDCDB27
:100E8000202105200007FFF725FB0220FFF784FE45
:100E900000BF402105200007FFF713FB0128F8D011
:100EA0000220FFF779FE202105200007FFF726FB2F
:100EB0000220FFF771FEFFF797FA204670BD7047DA
:100EC00008B501201F49496B01431E4A5163114671
:100ED000496B0140009100BF00BF01222021052085
:100EE0000007FFF71AFB0122202105200007FFF76A
:100EF00021FB0122202105200007FFF730FB012202
:100F0000202105200007FFF744FB01224021052096
:100F10000007FFF702FB0122402105200007FFF731
:100F200009FB0122402105200007FFF718FB0122E1
:100F3000402105200007FFF72CFB0348FFF758FE70
:100F400008BD0000001002406F0F00080000000004
:100F5000040404000008000000080000080000006D
:100F60000800020406080A0C000102030405063FFB
:100F7000065B4F666D7D077F6F000000000000007C
:100F800000000000A40F0008000000203000000056
:100F900084080008D40F000830000020000400007E
:100FA0009408000800366E01BF0E00080A00000019
:100FB0000000000029080008640000000000000094
:100FC00035080008F40100000000000000000000E7
:040FD000000000001D
:04000005080000C12E
:00000001FF
